{
  "_format": "hh-sol-artifact-1",
  "contractName": "Conecto",
  "sourceName": "contracts/ETHGlobal/Conecto.sol",
  "abi": [
    {
      "inputs": [
        {
          "internalType": "address",
          "name": "_adminAddress",
          "type": "address"
        },
        {
          "internalType": "string",
          "name": "_contractURI",
          "type": "string"
        }
      ],
      "stateMutability": "nonpayable",
      "type": "constructor"
    },
    {
      "inputs": [
        {
          "internalType": "address",
          "name": "target",
          "type": "address"
        }
      ],
      "name": "AddressEmptyCode",
      "type": "error"
    },
    {
      "inputs": [
        {
          "internalType": "address",
          "name": "account",
          "type": "address"
        }
      ],
      "name": "AddressInsufficientBalance",
      "type": "error"
    },
    {
      "inputs": [],
      "name": "FailedInnerCall",
      "type": "error"
    },
    {
      "anonymous": false,
      "inputs": [
        {
          "indexed": false,
          "internalType": "string",
          "name": "prevURI",
          "type": "string"
        },
        {
          "indexed": false,
          "internalType": "string",
          "name": "newURI",
          "type": "string"
        }
      ],
      "name": "ContractURIUpdated",
      "type": "event"
    },
    {
      "anonymous": false,
      "inputs": [
        {
          "indexed": true,
          "internalType": "address",
          "name": "creator",
          "type": "address"
        },
        {
          "indexed": false,
          "internalType": "string",
          "name": "handle",
          "type": "string"
        }
      ],
      "name": "HandleClaimed",
      "type": "event"
    },
    {
      "anonymous": false,
      "inputs": [
        {
          "indexed": false,
          "internalType": "uint8",
          "name": "version",
          "type": "uint8"
        }
      ],
      "name": "Initialized",
      "type": "event"
    },
    {
      "anonymous": false,
      "inputs": [
        {
          "indexed": true,
          "internalType": "bytes32",
          "name": "role",
          "type": "bytes32"
        },
        {
          "indexed": true,
          "internalType": "bytes32",
          "name": "previousAdminRole",
          "type": "bytes32"
        },
        {
          "indexed": true,
          "internalType": "bytes32",
          "name": "newAdminRole",
          "type": "bytes32"
        }
      ],
      "name": "RoleAdminChanged",
      "type": "event"
    },
    {
      "anonymous": false,
      "inputs": [
        {
          "indexed": true,
          "internalType": "bytes32",
          "name": "role",
          "type": "bytes32"
        },
        {
          "indexed": true,
          "internalType": "address",
          "name": "account",
          "type": "address"
        },
        {
          "indexed": true,
          "internalType": "address",
          "name": "sender",
          "type": "address"
        }
      ],
      "name": "RoleGranted",
      "type": "event"
    },
    {
      "anonymous": false,
      "inputs": [
        {
          "indexed": true,
          "internalType": "bytes32",
          "name": "role",
          "type": "bytes32"
        },
        {
          "indexed": true,
          "internalType": "address",
          "name": "account",
          "type": "address"
        },
        {
          "indexed": true,
          "internalType": "address",
          "name": "sender",
          "type": "address"
        }
      ],
      "name": "RoleRevoked",
      "type": "event"
    },
    {
      "inputs": [],
      "name": "DEFAULT_ADMIN_ROLE",
      "outputs": [
        {
          "internalType": "bytes32",
          "name": "",
          "type": "bytes32"
        }
      ],
      "stateMutability": "view",
      "type": "function"
    },
    {
      "inputs": [],
      "name": "NATIVE_TOKEN",
      "outputs": [
        {
          "internalType": "address",
          "name": "",
          "type": "address"
        }
      ],
      "stateMutability": "view",
      "type": "function"
    },
    {
      "inputs": [
        {
          "internalType": "string",
          "name": "handle",
          "type": "string"
        }
      ],
      "name": "claimHandle",
      "outputs": [],
      "stateMutability": "payable",
      "type": "function"
    },
    {
      "inputs": [
        {
          "internalType": "string",
          "name": "",
          "type": "string"
        }
      ],
      "name": "claimedHandles",
      "outputs": [
        {
          "internalType": "bool",
          "name": "",
          "type": "bool"
        }
      ],
      "stateMutability": "view",
      "type": "function"
    },
    {
      "inputs": [],
      "name": "contractURI",
      "outputs": [
        {
          "internalType": "string",
          "name": "",
          "type": "string"
        }
      ],
      "stateMutability": "view",
      "type": "function"
    },
    {
      "inputs": [
        {
          "internalType": "address",
          "name": "",
          "type": "address"
        }
      ],
      "name": "creators",
      "outputs": [
        {
          "internalType": "string",
          "name": "handle",
          "type": "string"
        },
        {
          "internalType": "string",
          "name": "subscriptionContract",
          "type": "string"
        }
      ],
      "stateMutability": "view",
      "type": "function"
    },
    {
      "inputs": [
        {
          "internalType": "bytes32",
          "name": "role",
          "type": "bytes32"
        }
      ],
      "name": "getRoleAdmin",
      "outputs": [
        {
          "internalType": "bytes32",
          "name": "",
          "type": "bytes32"
        }
      ],
      "stateMutability": "view",
      "type": "function"
    },
    {
      "inputs": [
        {
          "internalType": "address",
          "name": "creatorAddress",
          "type": "address"
        }
      ],
      "name": "getSubscriptionContract",
      "outputs": [
        {
          "internalType": "string",
          "name": "",
          "type": "string"
        }
      ],
      "stateMutability": "view",
      "type": "function"
    },
    {
      "inputs": [
        {
          "internalType": "string",
          "name": "handle",
          "type": "string"
        }
      ],
      "name": "getWebsitePreferencesByHandle",
      "outputs": [
        {
          "components": [
            {
              "internalType": "string",
              "name": "name",
              "type": "string"
            },
            {
              "internalType": "string",
              "name": "description",
              "type": "string"
            },
            {
              "internalType": "string",
              "name": "logo",
              "type": "string"
            },
            {
              "internalType": "uint8",
              "name": "textColor",
              "type": "uint8"
            },
            {
              "internalType": "uint8",
              "name": "secondaryColor",
              "type": "uint8"
            },
            {
              "internalType": "uint8",
              "name": "primaryColor",
              "type": "uint8"
            },
            {
              "internalType": "uint8",
              "name": "bgColor",
              "type": "uint8"
            }
          ],
          "internalType": "struct Conecto.WebsitePreference",
          "name": "",
          "type": "tuple"
        }
      ],
      "stateMutability": "view",
      "type": "function"
    },
    {
      "inputs": [
        {
          "internalType": "bytes32",
          "name": "role",
          "type": "bytes32"
        },
        {
          "internalType": "address",
          "name": "account",
          "type": "address"
        }
      ],
      "name": "grantRole",
      "outputs": [],
      "stateMutability": "nonpayable",
      "type": "function"
    },
    {
      "inputs": [
        {
          "internalType": "string",
          "name": "",
          "type": "string"
        }
      ],
      "name": "handleWebsitePreferences",
      "outputs": [
        {
          "internalType": "string",
          "name": "name",
          "type": "string"
        },
        {
          "internalType": "string",
          "name": "description",
          "type": "string"
        },
        {
          "internalType": "string",
          "name": "logo",
          "type": "string"
        },
        {
          "internalType": "uint8",
          "name": "textColor",
          "type": "uint8"
        },
        {
          "internalType": "uint8",
          "name": "secondaryColor",
          "type": "uint8"
        },
        {
          "internalType": "uint8",
          "name": "primaryColor",
          "type": "uint8"
        },
        {
          "internalType": "uint8",
          "name": "bgColor",
          "type": "uint8"
        }
      ],
      "stateMutability": "view",
      "type": "function"
    },
    {
      "inputs": [
        {
          "internalType": "bytes32",
          "name": "role",
          "type": "bytes32"
        },
        {
          "internalType": "address",
          "name": "account",
          "type": "address"
        }
      ],
      "name": "hasRole",
      "outputs": [
        {
          "internalType": "bool",
          "name": "",
          "type": "bool"
        }
      ],
      "stateMutability": "view",
      "type": "function"
    },
    {
      "inputs": [
        {
          "internalType": "bytes32",
          "name": "role",
          "type": "bytes32"
        },
        {
          "internalType": "address",
          "name": "account",
          "type": "address"
        }
      ],
      "name": "hasRoleWithSwitch",
      "outputs": [
        {
          "internalType": "bool",
          "name": "",
          "type": "bool"
        }
      ],
      "stateMutability": "view",
      "type": "function"
    },
    {
      "inputs": [
        {
          "internalType": "address",
          "name": "forwarder",
          "type": "address"
        }
      ],
      "name": "isTrustedForwarder",
      "outputs": [
        {
          "internalType": "bool",
          "name": "",
          "type": "bool"
        }
      ],
      "stateMutability": "view",
      "type": "function"
    },
    {
      "inputs": [
        {
          "internalType": "bytes[]",
          "name": "data",
          "type": "bytes[]"
        }
      ],
      "name": "multicall",
      "outputs": [
        {
          "internalType": "bytes[]",
          "name": "results",
          "type": "bytes[]"
        }
      ],
      "stateMutability": "nonpayable",
      "type": "function"
    },
    {
      "inputs": [
        {
          "internalType": "bytes32",
          "name": "role",
          "type": "bytes32"
        },
        {
          "internalType": "address",
          "name": "account",
          "type": "address"
        }
      ],
      "name": "renounceRole",
      "outputs": [],
      "stateMutability": "nonpayable",
      "type": "function"
    },
    {
      "inputs": [
        {
          "internalType": "bytes32",
          "name": "role",
          "type": "bytes32"
        },
        {
          "internalType": "address",
          "name": "account",
          "type": "address"
        }
      ],
      "name": "revokeRole",
      "outputs": [],
      "stateMutability": "nonpayable",
      "type": "function"
    },
    {
      "inputs": [],
      "name": "saleRecipient",
      "outputs": [
        {
          "internalType": "address",
          "name": "",
          "type": "address"
        }
      ],
      "stateMutability": "view",
      "type": "function"
    },
    {
      "inputs": [
        {
          "internalType": "string",
          "name": "_uri",
          "type": "string"
        }
      ],
      "name": "setContractURI",
      "outputs": [],
      "stateMutability": "nonpayable",
      "type": "function"
    },
    {
      "inputs": [
        {
          "internalType": "address",
          "name": "creatorAddress",
          "type": "address"
        },
        {
          "internalType": "string",
          "name": "subscriptionContract",
          "type": "string"
        }
      ],
      "name": "setSubscriptionContract",
      "outputs": [],
      "stateMutability": "nonpayable",
      "type": "function"
    },
    {
      "inputs": [
        {
          "internalType": "address",
          "name": "creatorAddress",
          "type": "address"
        },
        {
          "components": [
            {
              "internalType": "string",
              "name": "name",
              "type": "string"
            },
            {
              "internalType": "string",
              "name": "description",
              "type": "string"
            },
            {
              "internalType": "string",
              "name": "logo",
              "type": "string"
            },
            {
              "internalType": "uint8",
              "name": "textColor",
              "type": "uint8"
            },
            {
              "internalType": "uint8",
              "name": "secondaryColor",
              "type": "uint8"
            },
            {
              "internalType": "uint8",
              "name": "primaryColor",
              "type": "uint8"
            },
            {
              "internalType": "uint8",
              "name": "bgColor",
              "type": "uint8"
            }
          ],
          "internalType": "struct Conecto.WebsitePreference",
          "name": "_websitePreference",
          "type": "tuple"
        }
      ],
      "name": "setWebsitePreferences",
      "outputs": [],
      "stateMutability": "nonpayable",
      "type": "function"
    }
  ],
  "bytecode": "0x60806040523461002b5761001a610014610172565b90610201565b6040516127986106bb823961279890f35b600080fd5b634e487b7160e01b600052604160045260246000fd5b90601f01601f191681019081106001600160401b0382111761006757604052565b610030565b9061008061007960405190565b9283610046565b565b6001600160a01b031690565b90565b6001600160a01b0381160361002b57565b9050519061008082610091565b6001600160401b03811161006757602090601f01601f19160190565b0190565b60005b8381106100e25750506000910152565b81810151838201526020016100d2565b90929192610107610102826100af565b61006c565b938185528183011161002b576100809160208501906100cf565b9080601f8301121561002b57815161008e926020016100f2565b91909160408184031261002b5761015283826100a2565b60208201519093906001600160401b03811161002b5761008e9201610121565b610190612e53803803806101858161006c565b92833981019061013b565b9091565b906001600160a01b03905b9181191691161790565b61008e90610082906001600160a01b031682565b61008e906101a9565b61008e906101bd565b906101df61008e6101e6926101c6565b8254610194565b9055565b61008e61008e61008e9290565b61008e60006101ea565b90610221610080926102148160656101cf565b61021c6101f7565b610260565b6105ab565b905b600052602052604060002090565b90610228906101c6565b9060ff9061019f565b9061025961008e6101e692151590565b8254610240565b61028760016102828461027d856000610277610605565b01610226565b610236565b610249565b6102a86102a261029c61029861060d565b9390565b936101c6565b916101c6565b917f2f8788117e7eff1d82e926ec794901d17c78024a50270940304540a733656f0d6102d360405190565b600090a4565b634e487b7160e01b600052602260045260246000fd5b906001600283049216801561030f575b602083101461030a57565b6102d9565b91607f16916102ff565b8054600093929161033661032c836102ef565b8085529360200190565b9160018116908115610388575060011461034f57505050565b6103629192939450600052602060002090565b916000925b8184106103745750500190565b805484840152602090930192600101610367565b92949550505060ff1916825215156020020190565b9061008e91610319565b906100806103c1926103b860405190565b9384809261039d565b0383610046565b61008e906103a7565b9160001960089290920291821b911b61019f565b91906103f661008e6101e6936101ea565b9083546103d1565b610080916000916103e5565b818110610415575050565b8061042360006001936103fe565b0161040a565b9190601f811161043857505050565b61044a61008093600052602060002090565b906020601f84018190048301931061046c575b6020601f90910104019061040a565b909150819061045d565b9061047f815190565b906001600160401b038211610067576104a28261049c85546102ef565b85610429565b602090601f83116001146104dd576101e69291600091836104d2575b5050600019600883021c1916906002021790565b0151905038806104be565b601f198316916104f285600052602060002090565b9260005b81811061053057509160029391856001969410610517575b50505002019055565b01516000196008601f8516021c1916905538808061050e565b919360206001819287870151815501950192016104f6565b9061008091610476565b61057361057c6020936100cb93610567815190565b80835293849260200190565b958691016100cf565b601f01601f191690565b604080825261008e93919261059d91840190610552565b916020818403910152610552565b7fc9c7c3fe08b88b4df9d4d47ef47d2c43d55c025a0ba88ca442580ed9e7348a169060006105d7610615565b016105eb826105e5836103c8565b92610548565b6106006105f760405190565b92839283610586565b0390a1565b61008e610646565b61008e61064e565b61008e610694565b61008e7f0a7b0f5c59907924802379ebe98cdc23e2ee7820f63d30126e10b3752010e5006101ea565b61008e61061d565b6106573361069c565b1561066757601436033560601c90565b3390565b61008e7f4bc804ba64359c0e35e5ed5d90ee596ecaa49a3a930ddcb1470ea0dd625da9006101ea565b61008e61066b565b6106b361008e916106ab600090565b506033610236565b5460ff169056fe6080604052600436101561001257600080fd5b60003560e01c80630c2298ee14610162578063248a9ca31461015d5780632f2ff15d1461015857806331f7d9641461015357806336568abe1461014e578063572b6c05146101495780635b019b7614610144578063632486301461013f5780637a8e0fcf1461013a57806391d1485414610135578063933166e114610130578063938e3d7b1461012b578063a217fddf14610126578063a32fa5b314610121578063ac9650d81461011c578063b33b729314610117578063be00aab614610112578063cce504fe1461010d578063d547741f14610108578063e0edbc34146101035763e8a3d4850361021457610c31565b610c1e565b610c05565b610bd1565b610a8b565b610a3d565b610903565b610808565b6107ed565b6107b6565b610788565b6105f9565b6105d1565b6105a5565b610501565b6104a9565b61047c565b610439565b610410565b61039a565b610345565b634e487b7160e01b600052604160045260246000fd5b90601f01601f191681019081106001600160401b0382111761019e57604052565b610167565b906101b76101b060405190565b928361017d565b565b6001600160401b03811161019e57602090601f01601f19160190565b0190565b90826000939282370152565b909291926101fa6101f5826101b9565b6101a3565b9381855281830111610214576101b79160208501906101d9565b600080fd5b9080601f8301121561021457816020610234933591016101e5565b90565b906020828203126102145781356001600160401b038111610214576102349201610219565b60005b83811061026f5750506000910152565b818101518382015260200161025f565b6102a06102a96020936101d593610294815190565b80835293849260200190565b9586910161025c565b601f01601f191690565b9052565b906102349060c0806103026102f06102de60e086016000890151878203600089015261027f565b6020880151868203602088015261027f565b6040870151858203604087015261027f565b60608087015160ff16908501529460808181015160ff169085015260a08181015160ff1690850152015160ff16910152565b6020808252610234929101906102b7565b346102145761036c61036061035b366004610237565b610d44565b60405191829182610334565b0390f35b805b0361021457565b905035906101b782610370565b906020828203126102145761023491610379565b346102145761036c6103b56103b0366004610386565b610d77565b6040519182918290815260200190565b6001600160a01b031690565b6001600160a01b038116610372565b905035906101b7826103d1565b9190604083820312610214576102349060206104098286610379565b94016103e0565b34610214576104296104233660046103ed565b90610d9c565b604051005b600091031261021457565b346102145761044936600461042e565b61036c73eeeeeeeeeeeeeeeeeeeeeeeeeeeeeeeeeeeeeeee5b604051918291826001600160a01b03909116815260200190565b346102145761042961048f3660046103ed565b90610e33565b9060208282031261021457610234916103e0565b346102145761036c6104c46104bf366004610495565b610e9c565b60405191829182901515815260200190565b610234916008021c6001600160a01b031690565b9061023491546104d6565b610234600060656104ea565b346102145761051136600461042e565b61036c6104626104f5565b6101d56105349260209261052e815190565b94859290565b9384910161025c565b61054d6101d5916020949361051c565b918252565b61056761055e60405190565b9283928361053d565b03902090565b61023491610552565b610234916008021c5b60ff1690565b906102349154610576565b60006105a061023492606861056d565b610585565b346102145761036c6104c46105bb366004610237565b610590565b60208082526102349291019061027f565b346102145761036c6105ec6105e7366004610495565b610ebc565b6040515b918291826105c0565b346102145761036c6104c461060f3660046103ed565b90610edb565b610234906103c5906001600160a01b031682565b61023490610615565b61023490610629565b9061064590610632565b600052602052604060002090565b634e487b7160e01b600052602260045260246000fd5b9060016002830492168015610689575b602083101461068457565b610653565b91607f1691610679565b805460009392916106b06106a683610669565b8085529360200190565b916001811690811561070257506001146106c957505050565b6106dc9192939450600052602060002090565b916000925b8184106106ee5750500190565b8054848401526020909301926001016106e1565b92949550505060ff1916825215156020020190565b9061023491610693565b906101b761073b9261073260405190565b93848092610717565b038361017d565b61074d90606661063b565b90610234600161075c84610721565b9301610721565b604080825261023493919261077a9184019061027f565b91602081840391015261027f565b34610214576107a061079b366004610495565b610742565b9061036c6107ad60405190565b92839283610763565b34610214576104296107c9366004610237565b610ef9565b6102346102346102349290565b61023460006107ce565b6102346107db565b34610214576107fd36600461042e565b61036c6103b56107e5565b346102145761036c6104c461081e3660046103ed565b90610f61565b909182601f83011215610214578135916001600160401b03831161021457602001926020830284011161021457565b906020828203126102145781356001600160401b038111610214576108789201610824565b9091565b906102349161027f565b9061089c610892835190565b8083529160200190565b90816108ae6020830284019460200190565b926000915b8383106108c257505050505090565b909192939460206108e56108de8385600195038752895161087c565b9760200190565b93019301919392906108b3565b602080825261023492910190610886565b346102145761036c61091f610919366004610853565b906110d3565b604051918291826108f2565b60ff8116610372565b905035906101b78261092b565b91909160e0818403126102145761095860e06101a3565b9281356001600160401b0381116102145781610975918401610219565b845260208201356001600160401b0381116102145781610996918401610219565b602085015260408201356001600160401b03811161021457826109c08360c093610a019601610219565b60408701526109d28360608301610934565b60608701526109e48360808301610934565b60808701526109f68360a08301610934565b60a087015201610934565b60c0830152565b91909160408184031261021457610a1f83826103e0565b9260208201356001600160401b038111610214576102349201610941565b3461021457610429610a50366004610a08565b9061160e565b91909160408184031261021457610a6d83826103e0565b9260208201356001600160401b038111610214576102349201610219565b3461021457610429610a9e366004610a56565b9061163f565b6102349061057f565b6102349054610aa4565b6102349060081c61057f565b6102349054610ab7565b6102349060101c61057f565b6102349054610acd565b6102349060181c61057f565b6102349054610ae3565b610b0490606761056d565b610b0d81610721565b91610b1a60018301610721565b91610b2760028201610721565b91610b3460038301610aad565b91610b4160038201610ac3565b916102346003610b52818501610ad9565b9301610aef565b9260c094989795610bb4610ba8610bbe93610b9a610bc897610b8c6101b79d9860e08c01908c600081840391015261027f565b908a820360208c015261027f565b9088820360408a015261027f565b60ff909b166060870152565b60ff166080850152565b60ff1660a0830152565b019060ff169052565b346102145761036c610bec610be7366004610237565b610af9565b93610bfc97959793919360405190565b97889788610b59565b3461021457610429610c183660046103ed565b90611649565b610429610c2c366004610237565b611774565b3461021457610c4136600461042e565b61036c6105ec611881565b61023460e06101a3565b610c5e610c4c565b906060825260208080808080808801606081520160608152016000815201600081520160008152016000905250565b610234610c56565b906101b7610d316003610ca6610c4c565b94610cb7610cb382610721565b8752565b610ccd610cc660018301610721565b6020880152565b610ce3610cdc60028301610721565b6040880152565b610cfb610cf1838301610aad565b60ff166060880152565b610d13610d09838301610ac3565b60ff166080880152565b610d2b610d21838301610ad9565b60ff1660a0880152565b01610aef565b60ff1660c0840152565b61023490610c95565b610d5b61023491610d53610c8d565b50606761056d565b610d3b565b90610645565b6102349081565b6102349054610d66565b610d9761023491610d86600090565b506001610d9161188e565b01610d60565b610d6d565b90610ddd610dd882610dd3856000610db261188e565b610d91610dc5610d978560018501610d60565b610dcd611896565b9061190c565b61063b565b610aad565b610dea576101b7916119b1565b60405162461bcd60e51b815260206004820152601d60248201527f43616e206f6e6c79206772616e7420746f206e6f6e20686f6c646572730000006044820152606490fd5b0390fd5b90610e3c611896565b6001600160a01b03828116911603610e57576101b791611a4f565b60405162461bcd60e51b815260206004820152601a60248201527f43616e206f6e6c792072656e6f756e636520666f722073656c660000000000006044820152606490fd5b610dd861023491610eab600090565b50603361063b565b61023490610721565b6001610ed561023492610ecd606090565b50606661063b565b01610eb3565b61023491610dd3610dd892610eee600090565b506000610d9161188e565b610f08610f04611ab0565b1590565b610f15576101b790611ac3565b60405162461bcd60e51b815260206004820152600e60248201526d139bdd08185d5d1a1bdc9a5e995960921b6044820152606490fd5b6103c56102346102349290565b61023490610f4b565b610f6961188e565b91610f8d610f04610dd8610f7d8587610d60565b610f876000610f58565b9061063b565b610f9957505050600190565b61023492610dd892610dd391610d60565b6001600160401b03811161019e5760208091020190565b9061054d6101f583610faa565b60005b828110610fdd57505050565b606082820152602001610fd1565b906101b7611001610ffb84610fc1565b93610faa565b601f190160208401610fce565b634e487b7160e01b600052603260045260246000fd5b903590601e19368290030182121561021457018035906001600160401b038211610214576020019136829003831361021457565b9082101561106f5760206108789202810190611024565b61100e565b6102349136916101e5565b90611088825190565b81101561106f576020809102010190565b90916101d590839080936101d9565b6102b3906001600160a01b031660601b90565b6110cc90601494936101d593611099565b80926110a8565b9181906110df82610feb565b936110e8611896565b916001600160a01b0383163314159061110160006107ce565b865b8110156111a95761117c6111039184600014611183576111608761112630610632565b61115b611134858d8c611058565b9061114f61114160405190565b9586936020850193846110bb565b9081038252038361017d565b611b6c565b61116a828c61107f565b52611175818b61107f565b5060010190565b9050611101565b61116061118f30610632565b6111a361119d848c8b611058565b90611074565b90611b6c565b50945050505050565b906101b7916111c2610dc56107db565b6115b4565b6102349054610669565b156111d857565b60405162461bcd60e51b815260206004820152602560248201527f43726561746f72206861736e27742072656465656d656420616e2068616e646c60448201526419481e595d60da1b6064820152608490fd5b8054600093929161124261123e83610669565b9390565b9160018116908115611293575060011461125b57505050565b61126e9192939450600052602060002090565b6000905b83821061127f5750500190565b600181602092548486015201910190611272565b60ff191683525050811515909102019150565b61054d6101d5916020949361122b565b6105676112c260405190565b928392836112a6565b610234916112b6565b9160001960089290920291821b911b6112ed565b921b90565b9181191691161790565b9190611308610234611310936107ce565b9083546112d4565b9055565b6101b7916000916112f7565b81811061132b575050565b806113396000600193611314565b01611320565b9190601f811161134e57505050565b6113606101b793600052602060002090565b906020601f840181900483019310611382575b6020601f909101040190611320565b9091508190611373565b90611395815190565b906001600160401b03821161019e576113b8826113b28554610669565b8561133f565b602090601f83116001146113f3576113109291600091836113e8575b5050600019600883021c1916906002021790565b0151905038806113d4565b601f1983169161140885600052602060002090565b9260005b8181106114465750916002939185600196941061142d575b50505002019055565b01516000196008601f8516021c19169055388080611424565b9193602060018192878701518155019501920161140c565b906101b79161138c565b9060ff906112ed565b61057f6102346102349260ff1690565b9061149161023461131092611471565b8254611468565b9061ff009060081b6112ed565b906114b561023461131092611471565b8254611498565b9062ff00009060101b6112ed565b906114da61023461131092611471565b82546114bc565b9063ff0000009060181b6112ed565b9061150061023461131092611471565b82546114e1565b906115a460c060036101b794611527611521600087015190565b8261145e565b61153e611535602087015190565b6001830161145e565b61155561154c604087015190565b6002830161145e565b019261156e611568606083015160ff1690565b85611481565b61158561157f608083015160ff1690565b856114a5565b61159c61159660a083015160ff1690565b856114ca565b015160ff1690565b906114f0565b906101b791611507565b906115ea6115d36115ce60006101d56101b796606661063b565b6111c7565b6115e46115e060006107ce565b9190565b116111d1565b61160960006116016115fa611896565b606661063b565b0160676112cb565b6115aa565b906101b7916111b2565b906101b791611628610dc56107db565b9060016116396101b793606661063b565b0161145e565b906101b791611618565b906101b791611662610dc5610d97836001610d9161188e565b611a4f565b1561166e57565b60405162461bcd60e51b815260206004820152601660248201527548616e646c652063616e6e6f7420626520656d70747960501b6044820152606490fd5b156116b357565b60405162461bcd60e51b815260206004820152602b60248201527f43726561746f722068617320616c72656164792061207375627363726970746960448201526a1bdb8818dbdb9d1c9858dd60aa1b6064820152608490fd5b1561171357565b60405162461bcd60e51b815260206004820152601660248201527512185b991b1948185b1c9958591e4818db185a5b595960521b6044820152606490fd5b610234906103c5565b6102349054611751565b9061149161023461131092151590565b61179261177f825190565b61178c6115e060006107ce565b11611667565b6117bb6117a86115ce60006101d56115fa611896565b6117b56115e060006107ce565b116116ac565b61182d60016118286117cc84611e3d565b6117e06117db610f0483612008565b61170c565b61182173eeeeeeeeeeeeeeeeeeeeeeeeeeeeeeeeeeeeeeee611800611896565b61180a606561175a565b9061181b662386f26fc100006107ce565b9261201f565b606861056d565b611764565b61183e8160006116396115fa611896565b7f6f3a6a6febbabfd853d5dfff8faca353b1fc9eb544b68ee2bebd66864988b24661187c61187261186d611896565b610632565b926105f060405190565b0390a2565b6102346000610ed5612070565b6102346120a1565b6102346120a9565b6102349081906001600160a01b031681565b610234906107ce565b6118ef61023493926118e96118e9937402832b936b4b9b9b4b7b7399d1030b1b1b7bab73a1605d1b815260150190565b9061051c565b7001034b99036b4b9b9b4b733903937b6329607d1b815260110190565b90611925610f04610dd883610dd3866000610d9161188e565b61192d575050565b61198c610234610e2f9361197461196a61196461195461194f61199898610629565b61189e565b61195e60146107ce565b90612177565b926118b0565b61195e60206107ce565b9061197e60405190565b9384926020840192836118b9565b9081038252038261017d565b6040515b62461bcd60e51b8152918291600483016105c0565b6119c8600161182884610dd3856000610d9161188e565b6119e56119df6119d961123e611896565b93610632565b91610632565b917f2f8788117e7eff1d82e926ec794901d17c78024a50270940304540a733656f0d611a1060405190565b600090a4565b919060086112ed9102916112e860ff841b90565b9190611a3b61023461131093151590565b908354611a16565b6101b791600091611a2a565b611a59828261190c565b611a746000611a6f84610dd38584610d9161188e565b611a43565b611a856119df6119d961123e611896565b917ff6391f5c32d9c69d2a47ea670b442974b53935d1edc7fd64eb21e047a839171b611a1060405190565b610234611abb6107db565b61060f611896565b7fc9c7c3fe08b88b4df9d4d47ef47d2c43d55c025a0ba88ca442580ed9e7348a16906000611aef612070565b01611b0382611afd83610eb3565b9261145e565b611b0f6107ad60405190565b0390a1565b9061054d6101f5836101b9565b611b2b6027611b14565b7f416464726573733a206c6f772d6c6576656c2064656c65676174652063616c6c6020820152660819985a5b195960ca1b604082015290565b610234611b21565b61023491611b78611b64565b916122ad565b6102349161051c565b15611b8e57565b60405162461bcd60e51b815260206004820152602560248201527f68616e646c65206d757374206265206174206c65617374206f6e65206368617260448201526430b1ba32b960d91b6064820152608490fd5b15611be857565b60405162461bcd60e51b815260206004820152602a60248201527f68616e646c652063616e27742062652067726561746572207468616e203235206044820152696368617261637465727360b01b6064820152608490fd5b90611c49825190565b81101561106f570160200190565b6102349060f81c611471565b6102346102346102349260ff1690565b15611c7a57565b60405162461bcd60e51b815260206004820152602960248201527f46697273742063686172206f66207468652068616e646c652063616e2774206260448201526865206120737061636560b81b6064820152608490fd5b634e487b7160e01b600052601160045260246000fd5b91908203918211611cf457565b611cd1565b15611d0057565b60405162461bcd60e51b815260206004820152602860248201527f4c6173742063686172206f66207468652068616e646c652063616e2774206265604482015267206120737061636560c01b6064820152608490fd5b15611d5d57565b60405162461bcd60e51b815280610e2f600482016020808252818101527f496e76616c69642063686172616374657220696e207468652068616e646c652e604082015260600190565b15611dad57565b60405162461bcd60e51b815260206004820152602560248201527f68616e646c652063616e6e6f7420636f6e7461696e207468652022206368617260448201526430b1ba32b960d91b6064820152608490fd5b91908201809211611cf457565b61057f6102346102349290565b611e30611e2a6102349260ff1690565b60f81b90565b6001600160f81b03191690565b90611e5a611e4a60405190565b809361114f602083019182611b7e565b815191600092611e74611e6c856107ce565b821415611b87565b611e88611e81601a6107ce565b8210611be1565b611ebb611eb6611eb1611ea3611e9d886107ce565b86611c40565b516001600160f81b03191690565b611c57565b611c63565b611ed5602091611ece6115e060206107ce565b1415611c73565b600191611f14611f00611eb6611eb1611ea3611efa611ef460016107ce565b87611ce7565b89611c40565b611f0d6115e060206107ce565b1415611cf9565b82611f1e876107ce565b905b611f32575b5050505061023491925090565b818110156120035780611f51611eb6611eb1611ea3611f9e958a611c40565b611f5b601f6107ce565b811180611fec575b611f6c90611d56565b611f81611f7960226107ce565b821415611da6565b611f8b605b6107ce565b811080611fda575b611fa4575060010190565b83611f20565b611fc2611fbd611fc792611fb7886107ce565b90611e00565b611e0d565b611e1a565b881a611fd38288611c40565b5338611175565b50611fe560406107ce565b8111611f93565b50611f6c611ffa607f6107ce565b82109050611f63565b611f25565b610dd861023491612017600090565b50606861056d565b92919061202c60006107ce565b831461206a5773eeeeeeeeeeeeeeeeeeeeeeeeeeeeeeeeeeeeeeee6001600160a01b0385160361206157506101b7925061237b565b6101b7936122d5565b50505050565b6102346123ca565b6102347f0a7b0f5c59907924802379ebe98cdc23e2ee7820f63d30126e10b3752010e5006107ce565b610234612078565b6120b233610e9c565b156120c257601436033560601c90565b3390565b81810292918115918404141715611cf457565b369037565b906101b76120f46120ee84611b14565b936101b9565b601f1901602084016120d9565b8015611cf4576000190190565b610234906121226115e06102349460ff1690565b901c90565b1561212e57565b60405162461bcd60e51b815280610e2f600482016020808252818101527f537472696e67733a20686578206c656e67746820696e73756666696369656e74604082015260600190565b9091906121a261219d6121938561218e60026107ce565b6120c6565b611fb760026107ce565b6120de565b90600060306121b96121b3836107ce565b85611c40565b53600f60fb1b6121ec6121e36001978893851a6121d8611efa866107ce565b5361218e60026107ce565b611fb7836107ce565b905b612210575b506102349394509061220a6115e0610234936107ce565b14612127565b9161221a866107ce565b831115612288576f181899199a1a9b1b9c1cb0b131b232b360811b61223f600f6107ce565b821690601082101561106f57879261225f61227c92612282941a60f81b90565b851a61226b8789611c40565b536122766004611e0d565b9061210e565b93612101565b906121ee565b916121f3565b3d156122a85761229d3d611b14565b903d6000602084013e565b606090565b60008061023494936122bd606090565b50602081519101845af46122cf61228e565b9161241e565b9291906001600160a01b0382166001600160a01b0382161461206a576122fd6103c530610632565b6001600160a01b0382160361231e57506123196101b793610632565b612507565b61232a6101b794610632565b6124a0565b1561233657565b60405162461bcd60e51b815260206004820152601c60248201527f6e617469766520746f6b656e207472616e73666572206661696c6564000000006044820152606490fd5b600080916101b79361238c60405190565b90818003925af161239b61228e565b5061232f565b6102347f4bc804ba64359c0e35e5ed5d90ee596ecaa49a3a930ddcb1470ea0dd625da9006107ce565b6102346123a1565b156123d957565b60405162461bcd60e51b815260206004820152601d60248201527f416464726573733a2063616c6c20746f206e6f6e2d636f6e74726163740000006044820152606490fd5b91929015612450575081516124366115e060006107ce565b1461243f575090565b61244b6102349161256d565b6123d2565b8261253b565b61246f6124696102349263ffffffff1690565b60e01b90565b6001600160e01b03191690565b6001600160a01b039182168152911660208201526060810192916101b79160400152565b906124e5906124d66101b7956004956124bc6323b872dd612456565b936124c660405190565b978895602087019081520161247c565b6020820181038252038361017d565b612607565b6001600160a01b0390911681526040810192916101b79160200152565b6124e56004926124d66101b79561252163a9059cbb612456565b9261252b60405190565b96879460208601908152016124ea565b90612544825190565b6125516115e060006107ce565b11156125605750805190602001fd5b610e2f9061199c60405190565b3b61257b6115e060006107ce565b1190565b801515610372565b905051906101b78261257f565b906020828203126102145761023491612587565b156125af57565b60405162461bcd60e51b815260206004820152602a60248201527f5361666545524332303a204552433230206f7065726174696f6e20646964206e6044820152691bdd081cdd58d8d9595960b21b6064820152608490fd5b9061261461261992610632565b612651565b80516126286115e060006107ce565b116126305750565b61264c8160206126416101b7945190565b818301019101612594565b6125a8565b6102349161265f60006107ce565b61266830610632565b81813110612692575060008281926020610234969551920190855af161268c61228e565b916126c3565b610e2f9061269f60405190565b63cd78605960e01b8152918291600483016001600160a01b03909116815260200190565b906126ce5750612733565b81516126dd6115e060006107ce565b148061271d575b6126ec575090565b610e2f906126f960405190565b639996b31560e01b8152918291600483016001600160a01b03909116815260200190565b50803b61272d6115e060006107ce565b146126e4565b80516127426115e060006107ce565b111561275057805190602001fd5b604051630a12f52160e11b8152600490fdfea2646970667358221220204ad5087052cc8ecdc9eef5b73bc67a59edd2dccce3ee17d2d8dc9ad9c6037464736f6c63430008190033",
  "linkReferences": {},
  "deployedLinkReferences": {}
}